:020000040800F2
:1000000000000220791D00080F06000811060008F4
:100010001306000815060008170600080000000077
:1000200000000000000000000000000019060008A9
:100030001B060008000000001D0600081F0600083F
:10004000C91D0008C91D0008C91D0008C91D0008F8
:10005000C91D0008C91D0008C91D0008C91D0008E8
:10006000C91D0008C91D0008C91D0008C91D0008D8
:10007000C91D0008C91D0008C91D0008C91D0008C8
:10008000C91D0008C91D0008C91D0008C91D0008B8
:10009000C91D0008C91D0008C91D0008C91D0008A8
:1000A000C91D0008C91D0008C91D0008C91D000898
:1000B000C91D0008C91D0008C91D0008C91D000888
:1000C000C91D0008C91D0008C91D0008C91D000878
:1000D000C91D0008C91D0008C91D0008C91D000868
:1000E000C91D0008C91D0008C91D0008C91D000858
:1000F000C91D0008C91D0008C91D0008C91D000848
:10010000C91D0008C91D0008C91D0008C91D000837
:10011000C91D0008C91D0008C91D0008C91D000827
:10012000C91D0008C91D0008C91D0008C91D000817
:10013000C91D0008C91D0008C91D0008C91D000807
:10014000C91D0008C91D0008C91D0008C91D0008F7
:10015000C91D0008C91D0008C91D0008C91D0008E7
:10016000C91D0008C91D0008C91D0008C91D0008D7
:10017000C91D0008C91D0008C91D000800000000B5
:08018000C91D0008C91D00089B
:1001900001F0FF01102A2BDB10F0070F08D010F838
:1001A000013B013A8B422DD010F0070F42B3F6D13C
:1001B000F0B441EA012141EA014122F007047FF055
:1001C00000070023F0E80256083C85EA010586EAAC
:1001D000010685FA47F5A3FA87F586FA47F6A5FAE8
:1001E00087F68EB9EED1F0BC01F0FF0102F00702F4
:1001F00032B110F8013B013A83EA010313B1F8D19F
:100200000020704701387047002D06BF354603387F
:10021000073815F0010F07D1013015F4807F02BFB8
:10022000013015F4C03F0130F0BC0138704700BF09
:1002300053B94AB9002908BF00281CBF4FF0FF314D
:100240004FF0FF3000F00CB8ADF1080C6DE904CEB2
:1002500002F068FDDDF804E0DDE9022304B0704738
:10026000704700BF0348044B834202D0034B03B1E5
:100270001847704770000020700000200000000048
:1002800005480649091A891001EBD171491002D0BD
:10029000034B03B118477047700000207000002026
:1002A0000000000010B5064C237843B9FFF7DAFFD1
:1002B000044B13B10448AFF300800123237010BD39
:1002C0007000002000000000F42F000808B5054B66
:1002D0001BB105490548AFF30080BDE80840FFF7B2
:1002E000CFBF00BF0000000074000020F42F000802
:1002F00084B000220092154B196B41F01001196374
:10030000196B01F01001009100990192196B41F0F5
:1003100001011963196B01F0010101910199029228
:10032000196B41F004011963196B01F0040102918A
:10033000029903921A6B42F002021A631B6B03F0DC
:1003400002030393039B04B0704700BF00380240D0
:1003500008B50748074B0360002343608360C36010
:10036000036143618361036200F044FA08BD00BF8A
:10037000400100200000055008B50948094B036002
:10038000094B436000238360C3604FF480420261E5
:1003900043618361C361036200F096FC08BD00BF46
:1003A000EC00002000540040A086010010B594B07D
:1003B0003022002108A801F02DFD002403940494AC
:1003C0000594069407940194154B1A6C42F08052E0
:1003D0001A641B6C03F080530193019B0294114B30
:1003E0001A6842F480421A601B6803F48043029347
:1003F000029B0223089301230B9310230C930E946A
:1004000008A800F06BFF0F2303930494059406944F
:100410000794214603A801F07FF914B010BD00BF76
:10042000003802400070004038B501F03FFCFFF793
:10043000BDFFFFF75DFFFFF78BFFFFF79DFF4FF459
:100440007A7001F05FFC602000F0D2F804464FF4AF
:100450007A7001F057FC602000F0CAF805464FF4AE
:100460007A7001F04FFC2A462146024801F0DAFC7E
:10047000E5E700BF0C30000870B588B00025019595
:10048000214C236B43F002032363236B03F002032D
:100490000193019B402303931223049305950223A8
:1004A000069304230793194E03A9304601F0F8F987
:1004B0004FF40073039303A9304601F0F1F902955C
:1004C000236C43F400132364236C03F4001302939E
:1004D000029B236A43F400132362236A23F400136C
:1004E00023622A460F211F2001F062FB1F2001F02A
:1004F00093FB2A460F21202001F05AFB202001F017
:100500008BFB08B070BD00BF003802400004024001
:1005100010B50D4800F0DEFE00B110BD0A4C0B4BCB
:1005200023600B4B63600023A360E3604FF48042C1
:1005300022616361A361E3612362FFF79DFF2046AF
:1005400000F0C2FBE9E700BF8C000020005400402F
:10055000A086010008B5034800F088FCFFF7D8FF2B
:1005600008BD00BF8C00002010B586B004468DF891
:10057000172064230293012301930DF117020092C7
:100580000A460146044800F08BFC08B906B010BDCD
:100590002046FFF7DFFFF9E78C00002010B586B09A
:1005A000044600238DF817304FF47A730293012329
:1005B00001930DF1170200920A460146054800F02A
:1005C00021FD18B99DF8170006B010BD2046FFF7B1
:1005D000C1FFF7E78C00002008B5FFF799FF08BDC1
:1005E00008B5FFF7C1FF08BD08B5FFF7D7FF08BD85
:1005F00010B50446FFF7F0FFE4B20122FF212046C8
:10060000FFF7EEFF0A212046FFF7EEFF10BD70470F
:10061000FEE7FEE7FEE7FEE770477047704708B564
:1006200001F05EFB08BD000082B0002100910B4B81
:100630005A6C42F480425A645A6C02F4804200922E
:10064000009A01911A6C42F080521A641B6C03F0FC
:1006500080530193019B02B0704700BF00380240F5
:1006600070B58AB000230593069307930893099306
:100670000268314B9A4201D00AB070BD0024009448
:100680002E4B5A6B42F001025A635A6B02F0010280
:100690000092009A01941A6B42F010021A631A6BCE
:1006A00002F010020192019A02941A6B42F00102C8
:1006B0001A631A6B02F001020292029A03941A6BF7
:1006C00042F004021A631A6B02F004020392039AC6
:1006D00004941A6B42F002021A631B6B03F00203CC
:1006E0000493049B70230593022606960D25099515
:1006F00005A9134801F0D4F85023059306960794F2
:100700000894099505A90F4801F0CAF84FF47073D1
:100710000593069607940894099505A90A4801F0DF
:10072000BFF8C0230593069607940894099505A978
:10073000064801F0B5F89FE7000005500038024078
:100740000010024000000240000802400004024085
:1007500030B589B000230393049305930693079360
:100760000268154B9A4201D009B030BD00250195B1
:10077000124C236B43F002032363236B03F0020349
:100780000193019B4FF440730393122304930123BD
:100790000593032306930423079303A9084801F054
:1007A0007FF80295236C43F400132364236C03F455
:1007B00000130293029BD7E7005400400038024028
:1007C0000004024008B50268074B9A4200D008BDF9
:1007D000064A136C23F4001313644FF44071044869
:1007E00001F042F9F3E700BF005400400038024036
:1007F0000004024000283DD010B5044690F8253092
:1008000043B3022384F825302268136823F47F63FE
:1008100023F00803136021680A6863686069034372
:10082000E068034320690343A0680343A0690343CE
:10083000206A034313430B606368102B0DD02268BA
:10084000D36843F01E03D3600020E063012384F8E3
:10085000253010BDFFF704FFD3E7237F627F43EA13
:100860000223A27F43EA0243E17F226843EA016355
:100870009361E4E70120704703685A6912F4806FBE
:1008800001D1002070476FF480625A610023036336
:10089000202280F83D2080F83E30026C42F00402B5
:1008A000026480F83C3001207047F8B506460C46DB
:1008B00017461D4622E001F01FFA069BC01AA84207
:1008C00000D8DDB900233363202286F83D2086F866
:1008D0003E30326C42F02002326486F83C30012017
:1008E0001AE033689B6924EA03039BB2B3FA83F3EB
:1008F0005B099F420FD1B5F1FF3FDCD1C4F3074341
:10090000012BEED133685B6924EA03039BB2B3FA8F
:1009100083F35B09EDE70020F8BDF8B504460D460A
:1009200016461F463CE01A6842F400721A602368BB
:100930006FF480625A6100232363202284F83D20F3
:1009400084F83E30226C42F00402226484F83C3089
:10095000012033E001F0D0F9C01BB04200D8FEB94D
:1009600000232363202284F83D2084F83E30226C4B
:1009700042F02002226484F83C3001201EE023680B
:100980009B6925EA03039BB2003318BF0123A3B17F
:1009900023685A6912F4806FC5D1B6F1FF3FD9D1EF
:1009A000C5F30743012BEAD123685B6925EA0303FA
:1009B0009BB2003318BF0123E9E70020F8BD70B5F2
:1009C00004460D46164623685B6913F0800F1CD160
:1009D0002046FFF751FFD0B9B5F1FF3FF3D001F04A
:1009E0008BF9801BA84201D8002DECD10023236392
:1009F000202284F83D2084F83E30226C42F0200210
:100A0000226484F83C30012000E0002070BD012009
:100A1000FCE700002DE9F04184B004460E4617467D
:100A200098460B9D0268136843F480731360009529
:100A30000A9B00224FF00111FFF737FF20B101237D
:100A4000184604B0BDE8F081236806F0FE061E617A
:100A50002B460A9A20492046FFF75FFF08B1012381
:100A6000EEE70023039323685A6903929B6903937B
:100A7000039B2A460A992046FFF7A1FF034630B997
:100A8000B8F1010F0ED12268FFB21761D8E7236CCD
:100A9000042B01D00123D3E72268136843F40073C9
:100AA0001360F7E723683A0A1A612A460A99204632
:100AB000FFF785FF034618B92268FFB21761BFE749
:100AC000236C042B01D00123BAE72268136843F496
:100AD00000731360F7E700BF020001002DE9F04149
:100AE00084B004460E46174698460B9D026813686C
:100AF00043F4806313600268136843F480731360E7
:100B000000950A9B00224FF00111FFF7CEFE20B1A5
:100B10000123184604B0BDE8F081F6B2236806F060
:100B2000FE021A612B460A9A36492046FFF7F5FE67
:100B300008B10123EDE70023039323685A69039268
:100B40009B690393039B2A460A992046FFF737FFC8
:100B500080B9B8F1010F18D12368FFB21F612A468E
:100B60000A992046FFF72BFF68B3236C042B24D08F
:100B70000123CEE7236C042B01D00123C9E72268AF
:100B8000136843F400731360F7E723683A0A1A61A5
:100B90002A460A992046FFF712FF18B92368FFB2C8
:100BA0001F61DCE7236C042B01D00123B1E722682D
:100BB000136843F400731360F7E72268136843F483
:100BC00000731360D4E72268136843F480731360E2
:100BD00000950A9B00224FF001112046FFF765FEA9
:100BE00008B1012395E7236846F001061E612B46F4
:100BF0000A9A04492046FFF790FE0346002888D051
:100C0000012386E70200010070B504460D46164632
:100C100023685B6913F0040F1CD12046FFF72CFEFC
:100C2000D0B9B5F1FF3FF3D001F066F8801BA842C0
:100C300001D8002DECD100232363202284F83D202D
:100C400084F83E30226C42F02002226484F83C306A
:100C5000012000E0002070BD0120FCE770B50546D2
:100C60000C4616462B685A6912F0400F29D15A6972
:100C700012F0100F15D101F03FF8801BA04201D8EF
:100C8000002CEFD100232B63202285F83D2085F82E
:100C90003E302A6C42F020022A6485F83C30012064
:100CA00070BD6FF010025A6100232B63202285F87B
:100CB0003D2085F83E302A6C2A6485F83C300120BE
:100CC000EEE70020ECE70000002800F0C180F8B556
:100CD000044690F83D30002B6CD0242384F83D303E
:100CE0002268136823F00103136000F0C9FD6268F5
:100CF000594B9A4263D8594B98428CBF0023012329
:100D0000002B40F0A780564BA3FB00239B0C2168CF
:100D10004A6822F03F021A434A6025682A6A22F094
:100D20003F0266684C498E424FD8013313432B6211
:100D30002568E96921F44F4121F0FF016368464AC3
:100D400093424CD801385B00B0FBF3F0013040F621
:100D5000FC73184278D0C0F30B030B43EB6121689E
:100D60000B6823F0C003E269206A024313430B605F
:100D700021688B6823F4034323F0FF032269E068B2
:100D8000024313438B602168CB6823F0FF03626941
:100D9000A06902431343CB602268136843F0010348
:100DA000136000202064202384F83D30206384F801
:100DB0003E00F8BD80F83C30FFF7CAFC8DE7294BB8
:100DC00098428CBF002301239AE74FF4967101FBF0
:100DD00003F32549A1FB03139B090133A6E7A2688E
:100DE000BAB9461E03EB4307B6FBF7F60136C6F366
:100DF0000B06B6FA86F6760946BBC2B9421E03EB6D
:100E00004303B2FBF3F20132C2F30B0242F400439C
:100E1000A3E7461E03EB830707EB8707B6FBF7F64E
:100E20000136C6F30B06B6FA86F67609E4E7421EEB
:100E300003EB830303EB8303B2FBF3F20132C2F350
:100E40000B0242F4404388E7042386E7012384E74A
:100E5000012070470120ACE7A08601007F841E00BE
:100E600083DE1B43FF083D00D34D6210A8B110B5CF
:100E70000446242380F83D300268136823F0010300
:100E80001360FFF79FFC0020206484F83D0020637E
:100E900084F83E0084F83C0010BD0120704700003B
:100EA0002DE9F04182B004460E461746984600F000
:100EB00023FF94F83D30DBB2202B04D002231846E8
:100EC00002B0BDE8F08105460090192301224B498C
:100ED0002046FFF7EAFC002840F0898094F83C3077
:100EE000012B00F08680012384F83C3023681A68C7
:100EF00012F0010F03D11A6842F001021A60226851
:100F0000136823F400631360212384F83D304023E9
:100F100084F83E3000232364089B6362BDF82430CC
:100F20006385638D2385364BE36201950A9B0093AD
:100F300043463A4631462046FFF76CFD00285AD119
:100F4000238D002B33D02A460A992046FFF737FD20
:100F500010BB626A236812781A61616A4B1C636273
:100F6000238D013B9BB22385628D013A92B262854B
:100F70002268506910F0040FE2D0002BE0D04B78CB
:100F80001361636A01336362238D013B2385638DA3
:100F9000013B9BB26385D3E7236C042B01D0012373
:100FA0008DE72268136843F400731360F7E72A465D
:100FB0000A992046FFF728FE034650B1236C042B04
:100FC00001D001237BE72268136843F400731360A8
:100FD000F7E721680A6842F400720A60202284F868
:100FE0003D20002284F83E2084F83C2067E702235D
:100FF00065E7022363E7012361E700BF02001000F9
:101000000000FFFF2DE9F04186B004460E4617466A
:10101000984600F071FE94F83D30DBB2202B04D0EE
:101020000226304606B0BDE8F0810546009019233F
:1010300001229E492046FFF738FC002840F0348109
:1010400094F83C30012B00F03781012384F83C30C8
:1010500023681A6812F0010F03D11A6842F00102E6
:101060001A602268136823F400631360222384F853
:101070003D30402384F83E30002323640C9B6362A0
:10108000BDF834306385638D2385894BE362019518
:101090000E9B009343463A4631462046FFF71EFD1D
:1010A0000646002840F00A81238D5BB9029323682D
:1010B0005A6902929A690292029A1A6842F400727C
:1010C0001A6072E0012B0AD0022B1AD0002305937C
:1010D00023685A6905929B690593059B65E0226820
:1010E000136823F4806313600023039323685A6911
:1010F00003929A690392039A1A6842F400721A6082
:1011000053E02268136823F4806313602268136835
:1011100043F4006313600023049323685A69049224
:101120009B690493049B40E02A460E992046FFF7F2
:1011300095FD002840F0C48023681A69636A1A701C
:10114000636A01336362238D013B2385638D013B19
:101150009BB2638529E000950E9B002255492046ED
:10116000FFF7A3FB002840F0AD802268136843F42A
:101170000073136023681A69636A1A70626A531CE9
:101180006362238D013B2385638D013B9BB26385A5
:1011900023681B695370636A01336362238D013BCB
:1011A0002385638D013B9BB26385238D002B72D019
:1011B000032B49D8012BB7D0022BCCD000950E9B26
:1011C00000223C492046FFF770FB00287CD12268B2
:1011D000136823F48063136023681A69636A1A70C2
:1011E000636A01336362238D013B2385638D013B79
:1011F0009BB2638500950E9B00222E492046FFF787
:1012000054FB002862D12268136843F40073136012
:1012100023681A69636A1A70626A531C6362238DB9
:10122000013B2385638D013B9BB2638523681B696A
:101230005370636A01336362238D013B2385638DA1
:10124000013B9BB26385B0E72A460E992046FFF723
:1012500005FD00283CD123681A69636A1A70626A26
:10126000531C6362238D013B2385638D013B9BB23D
:1012700063852368596911F0040F96D01B69537078
:10128000636A01336362238D013B2385638D013BD8
:101290009BB2638589E7202384F83D30002384F8DE
:1012A0003E3084F83C30BCE60226BAE6020010006C
:1012B0000000FFFF040001000226B2E60126B0E6AE
:1012C0000126AEE60126ACE60126AAE60126A8E63E
:1012D0000126A6E690F83D0070470000002800F0C7
:1012E000B98170B582B00446036813F0010F3BD09A
:1012F000A64B9B6803F00C03042B2CD0A34B9B68DC
:1013000003F00C03082B21D06368B3F5803F4FD066
:10131000B3F5A02F52D09D4B1A6822F480321A6088
:101320001A6822F480221A606368002B50D000F003
:10133000E3FC0546954B1B6813F4003F14D100F005
:10134000DBFC401B6428F5D903208AE18F4B5B68E6
:1013500013F4800FD8D08D4B1B6813F4003F03D0DB
:101360006368002B00F07881236813F0020F54D0DB
:10137000864B9B6813F00C0F3ED0844B9B6803F0A8
:101380000C03082B33D0E368002B67D0804B01227D
:101390001A6000F0B1FC05467C4B1B6813F0020F8D
:1013A00053D100F0A9FC401B0228F5D9032058E1D5
:1013B000764A136843F480331360B5E7734B1A68B9
:1013C00042F480221A601A6842F480321A60ABE755
:1013D00000F092FC05466D4B1B6813F4003FC3D030
:1013E00000F08AFC401B6428F5D9032039E1674BE3
:1013F0005B6813F4800FC6D1644B1B6813F0020FB7
:1014000003D0E368012B40F02981604A136823F080
:10141000F803216943EAC1031360236813F0080F3E
:1014200040D0636963B35B4B01221A6000F064FC37
:101430000546564B5B6F13F0020F33D100F05CFC96
:10144000401B0228F5D903200BE1504A136823F012
:10145000F803216943EAC1031360DEE74C4B002225
:101460001A6000F049FC0546484B1B6813F0020F58
:10147000D3D000F041FC401B0228F5D90320F0E056
:10148000444B00221A6000F037FC05463F4B5B6F6F
:1014900013F0020F06D000F02FFC401B0228F5D9F4
:1014A0000320DEE0236813F0040F78D0374B1B6C69
:1014B00013F0805F33D100230193344B1A6C42F058
:1014C00080521A641B6C03F080530193019B012529
:1014D000314B1B6813F4807F23D0A368012B34D0D9
:1014E000052B38D0294B1A6F22F001021A671A6FA8
:1014F00022F004021A67A368002B36D000F0FCFB30
:101500000646224B1B6F13F0020F47D100F0F4FB8D
:10151000801B41F288339842F3D90320A1E00025D3
:10152000D6E71D4A136843F48073136000F0E4FBB0
:101530000646194B1B6813F4807FCED100F0DCFB0C
:10154000801B0228F5D903208BE0104A136F43F06B
:1015500001031367CFE70D4B1A6F42F004021A67BD
:101560001A6F42F001021A67C5E700F0C5FB064694
:10157000064B1B6F13F0020F10D000F0BDFB801B59
:1015800041F288339842F3D903206AE000380240E0
:1015900000004742800E474200700040E5B9A36951
:1015A000002B5DD0314A926802F00C02082A5AD012
:1015B000022B17D02E4B00221A6000F09DFB044630
:1015C0002A4B1B6813F0007F42D000F095FB001BF4
:1015D0000228F5D9032044E0244A136C23F08053F9
:1015E0001364DCE7224B00221A6000F085FB0546FD
:1015F0001E4B1B6813F0007F06D000F07DFB401BE4
:101600000228F5D903202CE0E369226A1343626AB9
:1016100043EA8213A26A5208013A43EA0243E26AA9
:1016200043EA0263114A5360114B01221A6000F031
:1016300063FB04460D4B1B6813F0007F06D100F0DE
:101640005BFB001B0228F5D903200AE0002008E01C
:10165000002006E001207047012002E0012000E0A8
:10166000002002B070BD0120FBE700BF003802403F
:1016700060004742254B9B6803F00C03042B40D0CD
:10168000082B40D170B5214B5A6802F03F025B68CD
:1016900013F4800F12D01D4B5968C1F38811002339
:1016A0001B48A1FB0001FEF7C3FD184B5B68C3F3A9
:1016B000014301335B00B0FBF3F070BD134B58687E
:1016C000C0F388100546002643011B1A66EB06048A
:1016D000A10141EA93619801C01A61EB0401CB00BA
:1016E00043EA5073C4001946601946EB01018B02AE
:1016F00043EA90538402204619463346FEF798FD8C
:10170000D3E7034870470348704700BF00380240E2
:1017100040787D010024F400002800F09A8070B524
:101720000446504B1B6803F00F038B4208D2CBB228
:101730004C4A1370136803F00F038B4240F08B8008
:10174000236813F0020F17D013F0040F04D0464A99
:10175000936843F4E0539360236813F0080F04D0B8
:10176000414A936843F4604393603F4A936823F08F
:10177000F003A068034393600D46236813F0010F44
:1017800032D06368012B21D09A1E012A25D9364A0E
:10179000126812F0020F60D033498A6822F0030207
:1017A00013438B6000F0A8FA06462F4B9B6803F0AA
:1017B0000C036268B3EB820F16D000F09DFA801B19
:1017C00041F288339842F0D9032041E0264A12685A
:1017D00012F4003FE0D101203AE0234A126812F0EF
:1017E000007FD9D1012033E01E4B1B6803F00F03AB
:1017F000AB4207D9EAB21B4B1A701B6803F00F0308
:10180000AB422CD1236813F0040F06D0164A93681C
:1018100023F4E053E1680B439360236813F0080F4F
:1018200007D0114A936823F46043216943EAC10356
:101830009360FFF71FFF0C4B9B68C3F303130B4A26
:10184000D35CD8400A4B1860002000F009FA002051
:1018500070BD012070470120FAE70120F8E7012060
:10186000F6E700BF003C0240003802401830000894
:1018700008000020014B1868704700BF08000020D6
:1018800008B5FFF7F7FF044B9B68C3F38223034AB5
:10189000D35CD84008BD00BF0038024028300008A3
:1018A00000230F2B00F2D680F0B482B039E007227B
:1018B00000E00022B2403A430235674E46F8252048
:1018C000664A1568E24302EA05064F6817F4803F4E
:1018D00001D044EA0506614D2E606D6802EA0506F6
:1018E0004F6817F4003F01D044EA05065B4D6E6077
:1018F000AD6802EA05064F6817F4801F01D044EA7C
:101900000506564DAE60ED682A404E6816F4001F7D
:1019100001D044EA0502514CE26001330F2B00F282
:10192000968001229A400C681440A242F5D14D687D
:10193000022D01D0122D10D1DE08083650F826C035
:1019400003F00705AF000F25BD402CEA050C0D691B
:10195000BD4045EA0C0540F8265006685F000325A7
:10196000BD40ED4305EA060C4E6806F00306BE4096
:1019700046EA0C0606604E6806F1FF3CBCF1010F1A
:1019800003D9112E01D0122E10D1866805EA060C5B
:10199000CE68BE4046EA0C068660466826EA020229
:1019A0004E68C6F300169E4016434660C268154056
:1019B0008A68BA402A43C2604A6812F0805FACD09D
:1019C00000220192264A556C45F480455564526CBC
:1019D00002F480420192019A9D08AE1C1E4A52F800
:1019E000267003F0030296000F22B24027EA020796
:1019F0001C4A90423FF45DAF02F5806290421AD0DB
:101A000002F58062904218D002F58062904216D0B2
:101A100002F58062904214D002F58062904212D0AA
:101A200002F58062904210D002F5806290423FF44D
:101A30003EAF08223EE701223CE702223AE70322BA
:101A400038E7042236E7052234E7062232E702B0FF
:101A5000F0BC7047704700BF00380140003C0140B7
:101A6000003802400000024000230F2B00F2878064
:101A7000F0B529E0072700E0002707FA05F5B54291
:101A800064D005685E000324B440E443254005604B
:101A9000DD08083550F8256003F007074FEA870C8A
:101AA0000F2707FA0CF726EA070640F82560856835
:101AB00025408560456825EA02024260C2681440FC
:101AC000C46001330F2B59D801229A4002EA010465
:101AD000A242F6D14FEA930C0CF10206284D55F8BC
:101AE000266003F00305AD000F2707FA05FE0EEA96
:101AF0000606244FB842BFD007F58067B84219D018
:101B000007F58067B84217D007F58067B84215D04F
:101B100007F58067B84213D007F58067B84211D047
:101B200007F58067B8420FD007F58067B842A1D0AB
:101B30000827A2E70127A0E702279EE703279CE7E3
:101B400004279AE7052798E7062796E70C4E0CF13D
:101B5000020556F8257027EA0E0746F825700A4D4B
:101B60002E68E44326402E606E6826406E60AE68A4
:101B70002640AE60EE683440EC6082E7F0BD70470E
:101B80000038014000000240003C0140074AD36891
:101B900023F4E0631B041B0C000200F4E060184314
:101BA00040F0BF6040F40030D060704700ED00E0CE
:101BB00030B4174BDB68C3F30223C3F10704042CD2
:101BC00028BF04241D1D062D01D9033B00E000237E
:101BD0004FF0FF3505FA04F421EA0401994005FAB3
:101BE00003F322EA03031943002809DB0901C9B200
:101BF00000F1604000F5614080F8001330BC704790
:101C000000F00F000901C9B2024B1954F6E700BFFA
:101C100000ED00E014ED00E0002807DB00F01F02FB
:101C2000400901239340024A42F82030704700BF28
:101C300000E100E00138B0F1807F0AD2064B586025
:101C4000064AF02182F823100020986007221A60CB
:101C500070470120704700BF10E000E000ED00E099
:101C600010B504460E4B18784FF47A73B3FBF0F3BB
:101C70000C4A1068B0FBF3F0FFF7DCFF68B90F2CDB
:101C800001D901200AE0002221464FF0FF30FFF782
:101C90008FFF054B1C60002000E0012010BD00BF3D
:101CA00000000020080000200400002008B50B4BB5
:101CB0001A6842F400721A601A6842F480621A606C
:101CC0001A6842F480721A600320FFF75FFF002059
:101CD000FFF7C6FFFEF7A8FC002008BD003C02404D
:101CE000034A1168034B1B780B441360704700BF15
:101CF0008001002000000020014B1868704700BFE1
:101D00008001002038B50446FFF7F6FF0546B4F120
:101D1000FF3F02D0044B1B781C44FFF7EDFF401B34
:101D2000A042FAD338BD00BF000000200F49D1F80F
:101D3000883043F47003C1F888300D4B1A6842F0C4
:101D400001021A60002098601A6822F0847222F45E
:101D500080321A60074A5A601A6822F480221A6098
:101D6000D8604FF000638B60704700BF00ED00E06B
:101D70000038024010300024DFF834D0002103E0A6
:101D80000C4B5B58435004310B480C4B42189A42A1
:101D9000F6D30B4A02E0002342F8043B094B9A4277
:101DA000F9D3FFF7C3FF00F011F8FEF73DFB7047D2
:101DB00000000220D8300008000000207000002041
:101DC0007000002094010020FEE7000070B50D4D6A
:101DD0000D4C641BA4100026A64209D10B4D0C4CDF
:101DE00001F008F9641BA4100026A64205D170BDBD
:101DF00055F8043B98470136EEE755F8043B984701
:101E00000136F2E7D0300008D0300008D0300008AA
:101E1000D430000802440346934200D1704703F8CF
:101E2000011BF9E70FB40A4B13B51C6824B1A36971
:101E300013B9204600F066F805AB049AA168019337
:101E4000204600F083F902B0BDE8104004B07047AE
:101E50000C000020002310B50446C0E90033836065
:101E600081814366C281C0E9043383611946082237
:101E70005C30FFF7CFFF054B6362054BA362054B58
:101E8000E362054B2462236310BD00BFD126000826
:101E9000F32600082B2700084F270008014900F00F
:101EA000AFB800BF292A000870B54A1E68255543FF
:101EB0000E4605F1740100F0C5F8044640B100215A
:101EC000C0E900160C30A06005F16802FFF7A2FF20
:101ED000204670BD014800F0B2B800BF8C01002060
:101EE000014800F0ADB800BF8C010020014800F0AF
:101EF000A6B800BF87010020014800F0A1B800BFCC
:101F00008701002010B50446FFF7F0FFA3691BB15D
:101F1000BDE81040FFF7F0BFC4E912332365134B4F
:101F2000134A1B68A262A34204BF0123A361204697
:101F300000F020F86060204600F01CF8A060204609
:101F400000F018F80022E06004216068FFF782FFCB
:101F500001220921A068FFF77DFF02221221E0681B
:101F6000FFF778FF0123A361D2E700BF30300008FC
:101F70009D1E0008F8B50746FFF7ACFF1E4B1E6814
:101F8000B36913B93046FFF7BDFF4836D6E90134CF
:101F9000013B03D533680BB33668F7E7B4F90C504F
:101FA000D5B9164BE36004F15800656600F046F8B9
:101FB000FFF796FF2560C4E90155C4E90455A56102
:101FC0000822294604F15C00FFF724FFC4E90D55FF
:101FD000C4E912552046F8BD6834D9E704213846D3
:101FE000FFF762FF044630600028D5D1FFF778FF85
:101FF0000C233B60EEE700BF303000080100FFFF1C
:102000002DE9F8438046894600F14804002614B9BA
:102010003046BDE8F883D4E90175013F01D5246855
:10202000F5E7AB89012B07D9B5F90E30013303D0A1
:1020300029464046C84706436835EEE77047704773
:1020400070470000F8B5CD1C25F0030508350C2DB0
:1020500038BF0C25002D064601DBA94203D90C230D
:1020600033600020F8BD00F091FD21490A68144654
:102070009CB9204F3B6823B92146304600F018FB3D
:1020800038602946304600F013FB431C23D10C2353
:102090003360304600F080FDE3E723685B1B17D414
:1020A0000B2B03D923601C44256004E06368A24223
:1020B0000CBF0B605360304600F06EFD04F10B0066
:1020C000231D20F00700C21ACCD01B1AA350C9E769
:1020D00022466468CCE7C41C24F00304A042E3D089
:1020E000211A304600F0E4FA0130DDD1CFE700BF1D
:1020F000E0000020E40000209368013B002B10B4B6
:10210000936008DA9469A34201DB0A2903D15DF8E0
:10211000044B00F021BB1368581C1060197008466E
:102120005DF8044B7047F8B506460F461446D518BF
:10213000AC4201D1002007E03A4614F8011B3046BA
:10214000FFF7DAFF431CF3D1F8BD00002DE9F04F93
:102150000D469DB014461E46074618B183690BB95B
:10216000FFF7D0FE854B9D421BD17D686B6ED90772
:1021700005D4AB899A0502D4A86DFFF760FFAB893F
:102180001B0701D52B69EBB92946384600F048FBFF
:10219000C0B16B6ED8070ED54FF0FF301DB0BDE853
:1021A000F08F774B9D4201D1BD68DFE7754B9D42B3
:1021B00008BFFD68DAE7AB899905EDD4A86DFFF794
:1021C0003FFFE9E70023099320238DF82930DFF84A
:1021D000B891039630238DF82A304FF0010A234638
:1021E0001E4613F8012B0AB1252AF9D1B6EB040BD0
:1021F0000BD05B46224629463846FFF794FF013054
:1022000000F0A380099B5B4409933378002B00F016
:102210009C8000234FF0FF32CDE905230136049363
:1022200007938DF853301A933446052214F8011B96
:102230005548FDF7ADFF049BC0B9DA0644BF202224
:102240008DF85320180744BF2B228DF85320327885
:102250002A2A13D0079A344600200A26214611F86C
:10226000013B303B092B4BD970B914E0A0EB0900BE
:102270000AFA00F0184304902646D5E7039A111D88
:1022800012680391002A01DB079204E0524243F0F6
:1022900002030792049323782E2B0CD163782A2B08
:1022A00033D1039B1A1D1B680392002BB8BF4FF05C
:1022B000FF3302340593354E217803223046FDF773
:1022C00067FF38B14023801B03FA00F0049B0343EF
:1022D0000134049314F8011B2D488DF828100622B0
:1022E000FDF756FF00283FD02A4B13BB039B073353
:1022F00023F0070308330393099B434409936EE7D4
:1023000006FB023201200C46A8E7002301340593A6
:1023100019460A26204610F8012B303A092A03D91B
:10232000002BC8D00591C6E706FB01210123044616
:10233000F0E703AB00932A46174B04A93846AFF3E6
:102340000080B0F1FF3F8046D6D16B6ED90705D42F
:10235000AB899A0502D4A86DFFF772FEAB895B06C4
:102360003FF51AAF099819E703AB00932A460A4BC9
:1023700004A9384600F088F8E3E700BF54300008AD
:102380007430000834300008943000089A30000897
:102390009E30000800000000272100082DE9F047CA
:1023A00091461F468A680B69DDF820809342B8BFCA
:1023B0001346C9F8003091F8432006460C4612B186
:1023C0000133C9F800302368990642BFD9F80030BC
:1023D0000233C9F80030256815F0060507D104F16D
:1023E000190AE368D9F800209B1AAB4228DC94F85C
:1023F00043302268003318BF012392062DD404F124
:10240000430239463046C047013020D02368E56892
:10241000D9F8002003F00603042B08BFAD1AA36807
:1024200022690CBF25EAE57500259342C4BF9B1ABB
:10243000ED184FF000091A344D451AD1002008E07C
:102440000123524639463046C047013003D14FF090
:10245000FF30BDE8F0870135C3E7E1185A1C302092
:1024600081F84300224494F8451082F84310023367
:10247000C5E70123224639463046C0470130E6D041
:1024800009F10109D8E700002DE9F04306460C46A2
:1024900001F14300097E85B06E29984617460C9BD2
:1024A00000F0BA8024D8632939D00AD8002900F076
:1024B000C380582900F0918004F1420584F842104D
:1024C00035E0642901D06929F6D125681A6815F02C
:1024D000800F02F104012CD012681960002A03DA7F
:1024E0002D23524284F84330DFF8BCC10A233FE079
:1024F000732900F0A58008D86F2921D07029DBD17D
:10250000226842F02002226003E0752918D0782961
:10251000D2D1782284F84520DFF890C161E01A68B2
:10252000111D1960136884F8423004F1420501233B
:1025300093E01268196015F0400F18BF12B2CDE792
:10254000D4F800C01A681CF0800F02F104051D6069
:1025500001D0126803E01CF0400FFAD01288DFF8B7
:1025600048C16F290CBF08230A23002184F84310B7
:102570006568A560002DA2BF216821F004012160DB
:102580000AB9002D46D00546B2FBF3F103FB112E2C
:1025900093421CF80EE005F801ED39D9082B0BD158
:1025A0002368DA0708D5236962689A42DEBF3023C0
:1025B00005F8013C05F1FF35401B2061CDF8008096
:1025C0003B4603AA21463046FFF7E8FE013049D1D9
:1025D0004FF0FF3005B0BDE8F083DFF8CCC084F8E1
:1025E00045101D68216855F8042B1D600D060BD59C
:1025F000CD0744BF41F0200121601AB9236823F0C0
:10260000200323601023B0E74B0648BF92B2EFE7E8
:102610000A46B9E70546C1E71A68D4F800C06169FF
:10262000151D1D601CF0800F136801D0196003E0B8
:102630001CF0400FFAD01980002323610546BDE746
:102640001A68111D19601568626800212846FDF797
:102650009FFD08B1401B606063682361002384F81C
:102660004330ABE723692A4639463046C04701303C
:10267000AED023689B0713D4E068039B9842B8BF91
:102680001846A7E701234A4639463046C04701307D
:102690009ED00135E368039A9B1AAB42F2DCEBE76C
:1026A000002504F11909F5E7A5300008B630000847
:1026B00038B5064C002305460846236000F01CFB95
:1026C000431C02D1236803B12B6038BD9001002068
:1026D00010B50C46B1F90E1000F0B2FA0028ABBFED
:1026E000636DA3891B1823F48053ACBF6365A3817A
:1026F00010BD2DE9F0411F468B89DB0505460C46D0
:10270000164605D502230022B1F90E1000F0C8F9D3
:10271000A389B4F90E1023F48053A38132463B46BB
:102720002846BDE8F04100F069B810B50C46B1F993
:102730000E1000F0B5F9431CA38915BF606523F4A2
:10274000805343F48053A38118BFA38110BDB1F916
:102750000E1000F0D3B80000F8B50E46144605463A
:1027600018B183690BB9FFF7CDFB214B9C422BD1EC
:102770006C68A369A360A3891A072FD523696BB37B
:1027800023692068C01A6369F6B28342374604DCC5
:102790002146284600F048F930BBA368013BA360FE
:1027A00023685A1C22601E7063690130834204D082
:1027B000A389DB0706D50A2E04D12146284600F05E
:1027C00033F988B93846F8BD0A4B9C4201D1AC6850
:1027D000CFE7094B9C4208BFEC68CAE72146284670
:1027E00000F01EF80028CBD04FF0FF37EAE700BF1B
:1027F00054300008743000083430000838B5074CF5
:10280000054608461146002222601A4600F082FA68
:10281000431C02D1236803B12B6038BD9001002016
:10282000324B70B51D6806460C4625B1AB6913B92D
:102830002846FFF767FB2E4B9C420FD16C68B4F91A
:102840000C309AB215072CD4D00611D4092232606C
:1028500043F04003A3814FF0FF303EE0254B9C4204
:1028600001D1AC68EBE7244B9C4208BFEC68E6E77B
:10287000510712D5616B41B104F14403994202D072
:10288000304600F08FF900236363A38923F024030B
:10289000A3810023636023692360A38943F00803B5
:1028A000A38123694BB9A38903F42073B3F5007F97
:1028B00003D02146304600F029F9A28912F0010325
:1028C0000CD00023A36063695B42A361236953B901
:1028D000B4F90C3013F08000BAD170BD920758BF24
:1028E0006369A360F2E70020F7E700BF0C00002057
:1028F00054300008743000083430000838B5064CF5
:10290000002305460846236000F0CEF9431C02D19F
:10291000236803B12B6038BD900100208A892DE91E
:10292000F041054610070C4658D44B68002B05DCD7
:102930000B6C002B02DC0020BDE8F081E66A002E63
:10294000F9D0002312F480522F682B6032D0606DD2
:10295000A3895A0705D56368C01A636B0BB1236C52
:10296000C01A00230246E66A216A2846B047431C83
:10297000A38906D129681D2949D82A4ACA40D60701
:1029800045D500226260D9042269226004D5421C28
:1029900001D12B6803B96065616B2F600029CAD033
:1029A00004F14403994202D0284600F0FBF80020CD
:1029B0006063C1E7216A01232846B047411CC7D1A3
:1029C0002B68002BC4D01D2B01D0162B01D12F60FA
:1029D000B1E7A38943F04003A381ADE70F69002F5E
:1029E000A9D093070E6808BF4B690F6018BF00237A
:1029F000A6EB07088B60B8F1000F9CDD43463A4612
:102A0000216AA66A2846B047002806DCA38943F05D
:102A10004003A3814FF0FF308EE70744A8EB000886
:102A2000E9E700BF0100402038B50B6905460C46B8
:102A300013B90025284638BD18B183690BB9FFF7D3
:102A400061FA144B9C421BD16C68B4F90C30002B1A
:102A5000EFD0626ED00704D4990502D4A06DFFF7C1
:102A6000EEFA28462146FFF759FF636EDA0705465E
:102A7000E0D4A3899B05DDD4A06DFFF7E1FAD9E787
:102A8000054B9C4201D1AC68DFE7044B9C4208BF78
:102A9000EC68DAE75430000874300008343000087D
:102AA00038B5074C054608461146002222601A46F2
:102AB00000F012F9431C02D1236803B12B6038BD2A
:102AC0009001002070B50E46B1F90E10002996B0A5
:102AD00014461D4607DA00232B60B3891A0610D46A
:102AE0004FF480630EE06A4600F0BCF80028F2DB89
:102AF000019A02F47042A2F500535A425A412A60E8
:102B0000EEE740230020236016B070BD8B8973B5BB
:102B10009D0706460C4607D504F147032360236151
:102B20000123636102B070BD01AB6A46FFF7CAFFC3
:102B3000009905463046FFF785FA48B9B4F90C30DC
:102B40009A05EFD423F0030343F00203A381E3E7E4
:102B50000D4BB362A389206043F08003A381009BE7
:102B60006361019B20615BB1B4F90E10304600F047
:102B70008BF828B1A38923F0030343F00103A38159
:102B8000A3891D43A581CDE79D1E00080148FFF7DD
:102B900056BA00BF880100200148FFF751BA00BFB4
:102BA0008801002038B50546002945D051F8043C7D
:102BB0000C1F002BB8BFE418FFF7E8FF1F4A13688B
:102BC000104633B9636014602846BDE83840FFF70B
:102BD000E3BFA3420CD921686218934204BF1A686C
:102BE0005B68636004BF521822600460ECE7134620
:102BF0005A680AB1A242FAD919685818A0420BD1F2
:102C000020680144581882421960DDD1106852686A
:102C10005A6001441960D7E702D90C232B60D3E72F
:102C2000206821188A4204BF11685268626004BF9C
:102C3000091821605C60C7E738BD00BFE0000020D4
:102C400038B5074C054608461146002222601A4650
:102C500000F04AF8431C02D1236803B12B6038BD51
:102C60009001002038B5074C002305460846114660
:102C7000236000F021F8431C02D1236803B12B60CC
:102C800038BD00BF9001002038B5064C0023054632
:102C90000846236000F018F8431C02D1236803B1F2
:102CA0002B6038BD90010020024B58221A604FF073
:102CB000FF30704790010020024B58221A604FF0FD
:102CC000FF30704790010020024B58221A6000200C
:102CD000704700BF90010020024B58221A604FF04D
:102CE000FF30704790010020024B58221A604FF0CD
:102CF000FF30704790010020044A05491368002BFB
:102D000008BF0B461844106018467047E8000020C2
:102D100098010020024B58221A604FF0FF30704794
:102D2000900100202DE9F047089E04468846002BBC
:102D300040F085808A42154648D9B2FA82F24AB1FB
:102D4000C2F1200701FA02F320FA07F7954047EA9B
:102D5000030894404FEA154E230CB8FBFEF71FFA08
:102D600085FC0EFB178843EA084307FB0CF19942E8
:102D700009D9EB1807F1FF3080F0E380994240F267
:102D8000E080023F2B445B1AA4B2B3FBFEF00EFBC3
:102D9000103344EA034400FB0CFCA44509D92C1968
:102DA00000F1FF3380F0CB80A44540F2C8800238A8
:102DB0002C4440EA0740A4EB0C0400271EB1D44089
:102DC0000023C6E900433946BDE8F087002A53D006
:102DD000B2FA82F2002A40F0B680491B4FEA154E43
:102DE0001FFA85F80127B1FBFEFC230C0EFB1C111A
:102DF00043EA014308FB0CF1994207D9EB180CF1A7
:102E0000FF3002D2994200F2EC808446591AA3B2F4
:102E1000B1FBFEF00EFB101443EA044408FB00F87B
:102E2000A04507D92C1900F1FF3302D2A04500F2CA
:102E3000DC801846A4EB080440EA0C40BEE78B4255
:102E400008D9002E78D00027C6E900013846394657
:102E5000BDE8F087B3FA83F77FB98B4202D3824291
:102E600000F2BD80841A61EB030301209846002E16
:102E7000A9D0C6E90048A6E7FFDEC7F12005BB40A0
:102E800022FA05FC4CEA030C01FA07F420FA05F8D3
:102E900021FA05F34FEA1C4E48EA0404B3FBFEF99D
:102EA000210C0EFB19331FFA8CF841EA034309FB8E
:102EB00008FA9A4502FA07F200FA07F10BD91CEB5F
:102EC000030309F1FF3080F088809A4540F2858045
:102ED000A9F102096344A3EB0A03A4B2B3FBFEF019
:102EE0000EFB103344EA034400FB08F8A04508D960
:102EF0001CEB040400F1FF336BD2A04569D9023802
:102F0000644440EA0940A4EB0804A0FB02894C4554
:102F1000C6464B4654D351D0002E69D0B1EB0E02B9
:102F200064EB030404FA05F522FA07F3FC401D43A1
:102F3000C6E90054002746E73746304643E71846BF
:102F400037E707461FE7C2F1200320FA03F7954051
:102F500001FA02F021FA03F34FEA154E3843010C4F
:102F6000B3FBFEF71FFA85F80EFB173341EA034166
:102F700007FB08F38B4204FA02F407D9691807F13A
:102F8000FF3C28D28B4226D9023F2944CB1A81B27A
:102F9000B3FBFEF00EFB103341EA034100FB08F3E4
:102FA0008B4207D9691800F1FF3C10D28B420ED931
:102FB00002382944C91A40EA074714E74145ABD211
:102FC000B8EB020E69EB0C0201381346A4E7604629
:102FD000F0E7184695E76746D8E781467BE738462D
:102FE00045E7ACF1020C2B4410E702382C4421E7F2
:102FF0003746E8E6F8B500BFF8BC08BC9E46704707
:0C300000F8B500BFF8BC08BC9E46704745
:10300C002564202C20256C640000000000000000CA
:10301C00000000000102030406070809000000007C
:10302C00010203041000002000000000000000005A
:10303C000000000000000000000000000000000084
:10304C000000000000000000000000000000000074
:10305C000000000000000000000000000000000064
:10306C000000000000000000000000000000000054
:10307C000000000000000000000000000000000044
:10308C000000000000000000232D302B2000686C95
:10309C004C0065666745464700303132333435366F
:1030AC0037383941424344454600303132333435A8
:0C30BC00363738396162636465660000D5
:0830C8005CFCFF7F0100000029
:0430D000CD02000825
:0430D400A502000849
:1030D80001000000100000000024F400100000208F
:1030E8000000000054300008743000083430000834
:1030F80000000000000000000000000000000000C8
:1031080000000000000000000000000000000000B7
:1031180000000000000000000000000000000000A7
:103128000000000000000000000000000000000097
:103138000000000000000000000000000000000087
:0400000508001D7959
:00000001FF
